:100000000C9462000C948A000C948A000C948A0070
:100010000C948A000C948A000C948A000C948A0038
:100020000C948A000C948A000C948A000C948A0028
:100030000C948A000C948A000C948A000C948A0018
:100040000C94BA040C948A000C948A000C948A00D4
:100050000C948A000C948A000C948A000C948A00F8
:100060000C9404050C948A00000000002400270072
:100070002A0000000000250028002B0000000008D6
:10008000000201000003040700000000000000005F
:1000900000000000230026002900040404040404D6
:1000A0000404020202020202030303030303010227
:1000B00004081020408001020408102001020408F6
:1000C0001020680611241FBECFEFD8E0DEBFCDBFE1
:1000D00011E0A0E0B1E0E0E2F5E102C005900D9290
:1000E000A437B107D9F722E0A4E7B1E001C01D921F
:1000F000A535B207E1F710E0C2E6D0E004C02197D1
:10010000FE010E94880AC136D107C9F70E948806FD
:100110000C948E0A0C94000090E0FC01E458FF4F10
:100120002491FC01E255FF4F3491FC01E656FF4F4C
:10013000E491EE23C9F0222339F0233001F1A8F431
:10014000213019F1223029F1F0E0EE0FFF1FEE58B7
:10015000FF4FA591B4918FB7F894EC91611126C02F
:1001600030953E233C938FBF08952730A9F0283067
:10017000C9F0243049F7809180008F7D03C08091C1
:1001800080008F7780938000DFCF84B58F7784BD28
:10019000DBCF84B58F7DFBCF8091B0008F778093CC
:1001A000B000D2CF8091B0008F7DF9CF3E2BDACF57
:1001B0003FB7F8948091390290913A02A0913B02A6
:1001C000B0913C0226B5A89B05C02F3F19F00196BF
:1001D000A11DB11D3FBFBA2FA92F982F8827BC01A1
:1001E000CD01620F711D811D911D42E0660F771FC9
:1001F000881F991F4A95D1F708958F929F92AF92C9
:10020000BF92CF92DF92EF92FF924B015C010E946E
:10021000D8006B017C010E94D8006C197D098E0901
:100220009F09683E734081059105A8F321E0821A79
:100230009108A108B10888EEC80E83E0D81EE11C21
:10024000F11C81149104A104B10429F7FF90EF90EF
:10025000DF90CF90BF90AF909F908F9008950895BA
:100260000895AF92BF92CF92DF92EF92FF920F93D9
:100270001F93CF93DF936C017B018B01040F151F3C
:10028000EB015E01AE18BF08C017D10759F06991A4
:10029000D601ED91FC910190F081E02DC601099508
:1002A000892B79F7C501DF91CF911F910F91FF90B5
:1002B000EF90DF90CF90BF90AF9008952091DC0138
:1002C000260F3327331F21323105ECF42091000231
:1002D000FC0190E080E0243069F082E00895A09174
:1002E000DC012191AC0144545E4FA40FB52FB11D28
:1002F0002C930196861798F38091DC01680F609328
:10030000DC0180E0089581E008951092000281E010
:10031000809302021092010261E082E10E948C004F
:1003200061E083E10E948C00E9EBF0E080818E7F48
:10033000808380818D7F808388E48093B80085E40A
:100340008093BC000895CF93DF9391E09093BB011D
:100350008823B9F0C091B800D091BA008091BC0058
:100360008A7B8093BC0060E082E10E948C0060E0A8
:1003700083E10E948C000E948501D093BA00C09353
:10038000B800DF91CF9108950895E0912D028091FA
:100390002C02E81730F4F0E0EA56FE4F808190E03E
:1003A00008958FEF9FEF089590912D0280912C0278
:1003B0002FEF3FEF981748F4E92FF0E0EA56FE4F91
:1003C000208130E09F5F90932D02C90108958091B4
:1003D0002C0290912D02891B990B0895CF92DF92E8
:1003E000EF92FF920F931F93CF93DF937C01CB018A
:1003F0008A0120919501222389F0EB016B01C40E43
:10040000D51ECC15DD0569F06991D701ED91FC9100
:100410000190F081E02DC7010995F3CF642F0E9470
:100420005E01C801DF91CF911F910F91FF90EF9076
:10043000DF90CF900895CF93DF931F92CDB7DEB7B3
:100440006983209195012223F9F020912A0220321C
:1004500058F021E030E0FC013383228390E080E01B
:100460000F90DF91CF91089580912B02E82FF0E05B
:10047000EB58FE4F998190838F5F80932B0280937E
:100480002A0281E090E0ECCF61E0CE0101960E946B
:100490005E01F7CFCF92DF92EF92FF920F931F93FF
:1004A000CF93DF93FC01C48121E020939501C09399
:1004B000740110922B0210922A028385682B8DE31F
:1004C00092E00E941B02D0912A02D13208F092C021
:1004D0000E94D8006B017C0180910002811165C0EF
:1004E00082E08093000281E0809302028FEF80938C
:1004F000FF0110922402D0932302A5E7B1E0E3E0CC
:10050000F2E080E0D81385C0109225028091250288
:10051000CC0FC82BC093250280910102813009F0D5
:100520007CC0109201020E94D8006B017C01809176
:1005300025028093BB008091B7019091B801A091F2
:10054000B901B091BA01892B8A2B8B2B99F00E94AB
:10055000D8000091B7011091B8012091B9013091F4
:10056000BA016C197D098E099F090617170728071C
:100570003907E0F18091BC0083FDD9CF85EC8093F1
:10058000BC000E94D8006B017C0180910002823087
:1005900009F445C08091FF018F3F61F18091FF0117
:1005A000803241F18091FF0125C08091B701909187
:1005B000B801A091B901B091BA01892B8A2B8B2B7C
:1005C00009F48ACF0E94D8000091B7011091B801B8
:1005D0002091B9013091BA016C197D098E099F09EA
:1005E000061717072807390708F076CF8091B6015C
:1005F0000E94A30110922B0210922A0210929501E0
:10060000DF91CF911F910F91FF90EF90DF90CF90EE
:1006100008959D9191938F5F75CF85EEB0CF8091B6
:10062000B7019091B801A091B901B091BA01892B9D
:100630008A2B8B2B09F4A9CF0E94D8000091B70117
:100640001091B8012091B9013091BA016C197D095E
:100650008E099F09061717072807390708F095CF55
:10066000C5CF089590E080E00895FC01019000203E
:10067000E9F73197AF01481B590BBC0189E492E0BF
:100680000C9431018F929F92AF92BF920F931F9360
:10069000CF93DF93CDB7DEB7A1970FB6F894DEBF47
:1006A0000FBECDBF19A2423008F44AE08E010F5DA3
:1006B0001F4F842E912CB12CA12CA50194010E94D6
:1006C000660AE62FB901CA01EA30F4F4E05DD80108
:1006D000EE938D01232B242B252B79F790E080E0DE
:1006E000109719F0CD010E943503A1960FB6F8942A
:1006F000DEBF0FBECDBFDF91CF911F910F91BF9095
:10070000AF909F908F900895E95CE1CF0F931F9376
:10071000482FEAEBF0E06491E6EAF0E0E491811121
:10072000462FF0E0EE0FFF1FE057FF4F85919491A9
:1007300000E412E42FE030E00E9423066115710509
:100740008105910529F06F5F7F4F8F4F9F4F9F70FD
:100750001F910F9108950F931F93CF938C01C62F74
:100760000E944A026C2F6460C8010E944A026C2FEA
:100770006B7FC8010E944A0283EC90E00197F1F779
:10078000CF911F910F9108950F931F93CF93DF93F4
:100790008C01D62FC42F607F642B0E94AB0380E1B5
:1007A000D89FB00111246C2BC801DF91CF911F910C
:1007B0000F910C94AB0340E061E089E492E00E9469
:1007C000C4038BE39FE10197F1F70895CF93DF9383
:1007D000CDB7DEB728970FB6F894DEBF0FBECDBFFA
:1007E00098E0E0E0F1E0DE01119601900D929A951B
:1007F000E1F790915102981708F48FEF90E0880F7D
:10080000991F21E030E02C0F3D1F820F931FFC0148
:100810006081606840E089E492E028960FB6F89421
:10082000DEBF0FBECDBFDF91CF910C94C403CF9339
:10083000DF93823028F090914E02986090934E02A0
:100840008093510262E370E080E090E00E94FD003E
:100850006091540289E492E00E944A0268EE73E0DB
:1008600080E090E00E94FD0060E389E492E00E9455
:10087000AB03CBE4D6E4CE010197F1F760E389E462
:1008800092E00E94AB032197F1F760E389E492E0E4
:100890000E94AB0383E592E00197F1F760E289E4FF
:1008A00092E00E94AB0360914E02606240E089E4F6
:1008B00092E00E94C40384E080934F0240E06CE029
:1008C00089E492E00E94C4030E94DB0382E08093EB
:1008D000500240E066E089E492E00E94C40340E0F8
:1008E00062E089E492E00E94C4038BE39FE10197F8
:1008F000F1F7DF91CF91089541E00E94C40381E0B8
:1009000090E0089585ED8093BC008091B7019091AF
:10091000B801A091B901B091BA010796A11DB11D0E
:1009200023E0B695A795979587952A95D1F72091BD
:10093000BC0024FD03C01092000208954091B7014D
:100940005091B8016091B9017091BA01452B462BC5
:10095000472B69F30097A105B10541F02AE22A95DA
:10096000F1F700C00197A109B109E1CF8091B6016B
:100970000C94A3011F920F920FB60F9211242F9384
:100980003F938F939F93AF93BF9380913502909144
:100990003602A0913702B09138023091340223E040
:1009A000230F2D3758F50196A11DB11D2093340258
:1009B0008093350290933602A0933702B0933802A9
:1009C0008091390290913A02A0913B02B0913C0291
:1009D0000196A11DB11D8093390290933A02A09314
:1009E0003B02B0933C02BF91AF919F918F913F9199
:1009F0002F910F900FBE0F901F90189526E8230F90
:100A00000296A11DB11DD2CF1F920F920FB60F9269
:100A100011242F933F934F935F936F937F938F9303
:100A20009F93AF93BF93EF93FF938091B900887F1B
:100A3000803609F44AC0F0F5883209F4A7C018F5E9
:100A4000803109F49BC0B8F4882309F4F9C08830D8
:100A500009F494C0FF91EF91BF91AF919F918F9155
:100A60007F916F915F914F913F912F910F900FBEAA
:100A70000F901F901895883109F488C0803251F783
:100A80008093FF0114C0803409F49DC040F480338A
:100A9000B9F38833F9F68093FF0185ECB0C0803557
:100AA00009F485C0883509F496C0883499F60E9407
:100AB0008204D0CF883909F48CC038F5883729F002
:100AC00050F4883611F0803729F683E080930002D5
:100AD0001092FE0157C0883809F47BC0803919F0A4
:100AE000803809F0B7CF8091FE01803208F071C0E4
:100AF000E091FE0181E08E0F8093FE018091BB00AA
:100B0000F0E0E252FE4F80833DC0803B39F0E0F4DC
:100B1000803A09F479C0883A09F09CCF84E0809348
:100B200000021092DD011092DC01E0912802F091A8
:100B3000290209958091DC0181110FC081E0809329
:100B4000DC011092BC0109C0803C09F4A6CF883CAE
:100B500009F4A3CF883B09F07DCFE091DD0181E06E
:100B60008E0F8093DD01F0E0E454FE4F808180938E
:100B7000BB009091DD018091DC0129C080912502AC
:100B80008093BB0085EC8093BC0064CF90912402DD
:100B900080912302981758F5E091240281E08E0F8E
:100BA00080932402F0E0ED5FFD4F8081E9CFE0917A
:100BB000240281E08E0F809324028091BB00F0E03C
:100BC000ED5FFD4F8083909124028091230298175E
:100BD000C8F285E8D8CFE091240281E08E0F80939F
:100BE00024028091BB00F0E0ED5FFD4F8083809197
:100BF000020281115CCF81E08093010284EA80933C
:100C0000BC001092000226CF85EC8093BC001092AD
:100C100000028091FE01803230F4E091FE01F0E0AC
:100C2000E252FE4F10826091FE0170E0E0912602D8
:100C3000F09127028EED91E009951092FE010ACF06
:100C40001092FF0134CFCF92DF92EF92FF920F9379
:100C50001F93E82FF92F05C001501109210931090F
:100C600061F1908196239417B9F305C001501109E1
:100C70002109310911F1908196239413F7CFC12CEA
:100C8000D12CE12CF12C0AC08FEFC81AD80AE80A3F
:100C9000F80A0C151D052E053F0579F08081862385
:100CA000841791F36C2D7D2D8E2D9F2D1F910F910B
:100CB000FF90EF90DF90CF90089560E070E080E0CB
:100CC00090E01F910F91FF90EF90DF90CF900895EB
:100CD000EDE3F2E01382128288EE93E0A0E0B0E050
:100CE00084839583A683B7838CE091E0918380838E
:100CF000E9E4F2E0138212828EE191E09183808335
:100D000087E2848380E1818782E082871386089569
:100D1000789484B5826084BD84B5816084BD85B5D6
:100D2000826085BD85B5816085BD80916E008160E2
:100D300080936E0010928100809181008260809388
:100D4000810080918100816080938100809180008A
:100D50008160809380008091B10084608093B100B5
:100D60008091B00081608093B00080917A008460AF
:100D700080937A0080917A00826080937A008091DB
:100D80007A00816080937A0080917A0080688093F5
:100D90007A001092C100EAEBF0E02491E6EAF0E07C
:100DA00084918823C1F090E0880F991FFC01E859D5
:100DB000FF4FC591D491FC01EE58FF4FA591B4911E
:100DC0009FB7F8948881E22FE0958E2388838C91D9
:100DD000E823EC939FBF10922D0210922C021092E8
:100DE0002B0210922A020E9485018FE291E09093DB
:100DF00029028093280280E391E090932702809358
:100E0000260210924E02809153020E94170488E03D
:100E10008093540260E089E492E00E944A020E94BA
:100E2000DB0382E00E94170480E00E94E60386E272
:100E300091E00E94350381E00E94E60384E391E0A3
:100E40000E94350364EC79E080E090E00E94FD00B0
:100E50000E94DB0380E00E94E60384E491E00E94AC
:100E6000350381E00E94E6038EE491E00E943503A1
:100E700064EC79E080E090E00E94FD000E94DB03DA
:100E8000C0E0D0E080E00E94E60386E591E00E94A9
:100E9000350381E00E94860370933302609332022F
:100EA00080E00E9486032091320230913302620F6B
:100EB000731F072E000C880B990B0E943F099B01A2
:100EC000AC0160E074E284E799E40E949C086B0145
:100ED0007C014B015C01C0922E02D0922F02E09265
:100EE0003002F092310281E00E94E603A7019601F0
:100EF000C701B6010E94610A8823B1F083E691E040
:100F00000E9435038FE691E00E94350364EF71E0A3
:100F100080E090E00E94FD000E94DB03209709F42E
:100F2000B1CF0E940000AECF26013701E89477F8D8
:100F30002FEF3FEF4FE75FE7C301B2010E94610A65
:100F400081110DC02FEF3FEF4FE75FE7C301B20103
:100F50000E94970818161CF487E691E0D1CF2FEF76
:100F60003FEF4FE75FE4C701B6010E94EF09181693
:100F70001CF48BE691E0C4CF2FEF3FEF4FE75FEC1F
:100F8000C701B6010E94970887FDF3CF20E030E04B
:100F9000A901C701B6010E94970887FF0CC041E074
:100FA0006DE289E492E00E94C40346015701B7FA5A
:100FB000B094B7F8B0942AE037ED43EA5BE3C5019B
:100FC000B4010E942B084B015C010E940E096B01C9
:100FD0007C010E943D099B01AC01C501B4010E9446
:100FE0002A084B015C014AE0C701B6010E94420396
:100FF00041E06EE289E492E00E94C40320E030E028
:1010000040E251E4C501B4010E94F4094B015C01C6
:101010000E940E096B01F12CE12C4AE0C701B601D8
:101020000E944203C701B6010E943D099B01AC0129
:10103000C501B4010E942A0820E030E040E251E4FA
:101040000E94F4090E940E0990E080E04AE00E94AC
:10105000420358CF5058BB27AA270E9442080C943D
:10106000B5090E94A70938F00E94AE0920F039F4B2
:101070009F3F19F426F40C94A4090EF4E095E7FBC5
:101080000C949E09E92F0E94C60958F3BA1762070B
:1010900073078407950720F079F4A6F50C94E80906
:1010A0000EF4E0950B2EBA2FA02D0B01B901900183
:1010B0000C01CA01A0011124FF27591B99F0593FC7
:1010C00050F4503E68F11A16F040A22F232F342F0F
:1010D0004427585FF3CF469537952795A795F0405D
:1010E0005395C9F77EF41F16BA0B620B730B840B72
:1010F000BAF09150A1F0FF0FBB1F661F771F881F2A
:10110000C2F70EC0BA0F621F731F841F48F4879581
:1011100077956795B795F7959E3F08F0B0CF939573
:10112000880F08F09927EE0F9795879508950E94EC
:101130007A0908F481E008950E94B0080C94B5097A
:101140000E94AE0958F00E94A70940F029F45F3FC1
:1011500029F00C949E0951110C94E9090C94A409EE
:101160000E94C60968F39923B1F3552391F3951BA7
:10117000550BBB27AA2762177307840738F09F5FB8
:101180005F4F220F331F441FAA1FA9F335D00E2E25
:101190003AF0E0E832D091505040E695001CCAF792
:1011A0002BD0FE2F29D0660F771F881FBB1F261755
:1011B00037074807AB07B0E809F0BB0B802DBF012C
:1011C000FF2793585F4F3AF09E3F510578F00C94FB
:1011D0009E090C94E9095F3FE4F3983ED4F38695A9
:1011E00077956795B795F7959F5FC9F7880F911D1C
:1011F0009695879597F90895E1E0660F771F881F08
:10120000BB1F621773078407BA0720F0621B730BBA
:10121000840BBA0BEE1F88F7E09508950E94CE0963
:1012200088F09F5798F0B92F9927B751B0F0E1F0A7
:10123000660F771F881F991F1AF0BA95C9F714C057
:10124000B13091F00E94E809B1E008950C94E809EA
:10125000672F782F8827B85F39F0B93FCCF3869590
:1012600077956795B395D9F73EF4909580957095ED
:1012700061957F4F8F4F9F4F0895E89409C097FB6A
:101280003EF490958095709561957F4F8F4F9F4F5D
:101290009923A9F0F92F96E9BB279395F6958795A1
:1012A00077956795B795F111F8CFFAF4BB0F11F464
:1012B00060FF1BC06F5F7F4F8F4F9F4F16C088230B
:1012C00011F096E911C0772321F09EE8872F762F41
:1012D00005C0662371F096E8862F70E060E02AF082
:1012E0009A95660F771F881FDAF7880F969587956E
:1012F00097F90895990F0008550FAA0BE0E8FEEF43
:1013000016161706E807F907C0F012161306E407C9
:10131000F50798F0621B730B840B950B39F40A26C2
:1013200061F0232B242B252B21F408950A2609F4A0
:10133000A140A6958FEF811D811D089597F99F67A4
:1013400080E870E060E008959FEF80EC089500244D
:101350000A941616170618060906089500240A941A
:1013600012161306140605060895092E0394000CA0
:1013700011F4882352F0BB0F40F4BF2B11F460FF2F
:1013800004C06F5F7F4F8F4F9F4F089557FD905858
:10139000440F551F59F05F3F71F04795880F97FB39
:1013A000991F61F09F3F79F08795089512161306F3
:1013B0001406551FF2CF4695F1DF08C01616170622
:1013C0001806991FF1CF8695710561050894089557
:1013D000E894BB2766277727CB0197F908950E94E9
:1013E0007A0908F48FEF08950E94070A0C94B50952
:1013F0000E94A70938F00E94AE0920F0952311F051
:101400000C949E090C94A40911240C94E9090E94DF
:10141000C60970F3959FC1F3950F50E0551F629F69
:10142000F001729FBB27F00DB11D639FAA27F00D3D
:10143000B11DAA1F649F6627B00DA11D661F829F64
:101440002227B00DA11D621F739FB00DA11D621F49
:10145000839FA00D611D221F749F3327A00D611D66
:10146000231F849F600D211D822F762F6A2F112448
:101470009F5750409AF0F1F088234AF0EE0FFF1F7B
:10148000BB1F661F771F881F91505040A9F79E3FD2
:10149000510580F00C949E090C94E9095F3FE4F338
:1014A000983ED4F3869577956795B795F795E79528
:1014B0009F5FC1F7FE2B880F911D9695879597F931
:1014C00008950E947A09880B990B0895A1E21A2EBB
:1014D000AA1BBB1BFD010DC0AA1FBB1FEE1FFF1FD8
:1014E000A217B307E407F50720F0A21BB30BE40B28
:1014F000F50B661F771F881F991F1A9469F760956F
:101500007095809590959B01AC01BD01CF01089528
:10151000EE0FFF1F0590F491E02D0994F894FFCF92
:101520000000400014005400000000001B02EE0107
:101530003203C401E701D401C501000000007C04AE
:101540003101320331034D6F73746166612C2020C9
:10155000416D72004261766C692C204D6F68616D3F
:101560006D6564004672657175656E637900436FE1
:10157000756E746572004672657175656E6379206B
:101580006973006E616E00696E66006F766600209A
:04159000487A000095
:00000001FF
